:020000040000FA
:1000000098030020ED030000F5030000F703000053
:10001000F9030000FB030000FD03000000000000E6
:10002000000000000000000000000000FF030000CE
:1000300001040000000000000304000005040000AB
:1000400007040000090400000B0400000D04000078
:100050000F04000011040000130400001504000048
:1000600017040000190400001B0400001D04000018
:100070001F040000210400002304000025040000E8
:1000800027040000290400002B0400002D040000B8
:100090002F04000031040000330400003504000088
:1000A00037040000390400003B0400003D04000058
:1000B0003F04000041040000430400004504000028
:1000C00047040000490400004B0400004D040000F8
:1000D0004F040000510400005304000055040000C8
:1000E0005704000059040000000000005B040000F9
:1000F0005D0400005F040000610400006304000070
:100100006504000067040000690400006B0400003F
:1001100000000000000000006D0400006F040000FB
:1001200071040000730400007504000077040000EF
:10013000790400007B0400007D0400007F040000BF
:1001400000000000000000000000000000000000AF
:10015000810400008304000085040000870400007F
:10016000000000000000000000000000000000008F
:10017000000000000000000000000000000000007F
:10018000000000000000000000000000000000006F
:10019000000000000000000000000000000000005F
:1001A000000000000000000000000000000000004F
:1001B000890400008B0400008D0400008F040000FF
:1001C00091040000930400009504000097040000CF
:1001D000990400009B0400009D0400009F0400009F
:1001E000A1040000A3040000A5040000000000001A
:1001F00000000000A7040000A9040000AB040000F8
:10020000AD040000AF04000000000000000000008A
:10021000B1040000B3040000B5040000B7040000FE
:10022000B9040000BB040000BD040000BF040000CE
:10023000C1040000C3040000C5040000C70400009E
:10024000C9040000CB040000CD040000CF0400006E
:10025000D1040000D3040000D5040000D70400003E
:10026000D9040000DB040000DD04000000F002F807
:1002700000F0ACF814A696E8000CB244B344DA459A
:1002800001D100F0A3F8BAE80F000FA696E83000FD
:10029000A5EB040504EB0607AAEB0704A7F1010789
:1002A0004FEA15154FEA3414A4F10104AC4201D30E
:1002B00000F08CF813F0010F18BFFB1A43F0010394
:1002C00000F001F8DBE7184710350000303500007A
:1002D000103A24BF78C878C1FAD8520724BF30C872
:1002E00030C144BF04680C607047000070470000D4
:1002F0000023002400250026103A28BF78C1FBD82F
:10030000520728BF30C148BF0B6070476E2900F00C
:100310007582702900F0B783662902F09E876529EF
:1003200002F09B87672902F09887612902F097877E
:1003300003681B0A28BF41F08001692900F022826E
:10034000642900F01F82752900F01C826F2900F0DB
:100350004583782900F08383E92900F0DF82E429CE
:1003600000F0DC82F52900F0D982EF2900F0428309
:10037000F82900F082830368DB0928BF41F080017F
:10038000632901F0C980732901F0CE80E32901F0CF
:10039000D980F32901F0DE80002070471FB502F0FC
:1003A0004FFF9DE8030000F055F901F031F904001A
:1003B0000020002102F02EFF401C60600020002180
:1003C00002F012FFE0601FBD10B510BD01F0F2F8A1
:1003D0001146FFF7E3FF02F0EDF801F0CFF903B4A7
:1003E000FFF7F2FF03BC01F0FFF900003F48804730
:1003F0003F480047FEE7FEE7FEE7FEE7FEE7FEE7D1
:10040000FEE7FEE7FEE7FEE7FEE7FEE7FEE7FEE7C4
:10041000FEE7FEE7FEE7FEE7FEE7FEE7FEE7FEE7B4
:10042000FEE7FEE7FEE7FEE7FEE7FEE7FEE7FEE7A4
:10043000FEE7FEE7FEE7FEE7FEE7FEE7FEE7FEE794
:10044000FEE7FEE7FEE7FEE7FEE7FEE7FEE7FEE784
:10045000FEE7FEE7FEE7FEE7FEE7FEE7FEE7FEE774
:10046000FEE7FEE7FEE7FEE7FEE7FEE7FEE7FEE764
:10047000FEE7FEE7FEE7FEE7FEE7FEE7FEE7FEE754
:10048000FEE7FEE7FEE7FEE7FEE7FEE7FEE7FEE744
:10049000FEE7FEE7FEE7FEE7FEE7FEE7FEE7FEE734
:1004A000FEE7FEE7FEE7FEE7FEE7FEE7FEE7FEE724
:1004B000FEE7FEE7FEE7FEE7FEE7FEE7FEE7FEE714
:1004C000FEE7FEE7FEE7FEE7FEE7FEE7FEE7FEE704
:1004D000FEE7FEE7FEE7FEE7FEE7FEE7FEE70000D9
:1004E00004480549034A054B704700008D2400006D
:1004F0006D02000098010020980300209801002060
:1005000070B5064600F08AF8056806F10B0020F089
:100510000704B4429CBF002070BD2B466A68BAB184
:100520001068A04210D304F1080188423CBF506813
:10053000586007D35168101941601168091B0160A8
:1005400058601460101D70BD13465268002AE7D130
:100550002146284600F06AF80028DED170BD70B54B
:100560000446051F00F05AF80068002C14BF4468C8
:1005700070BD002C18BFAC423CBF20466468F8D365
:1005800001680A18AA4218BF456003D12A680546C7
:100590001144016028684119A1421CBF6C6070BD04
:1005A0006168696021680844286070BD1CB50C460C
:1005B000064B7B4469460090204600F038F904461B
:1005C0000020694600F046F920461CBD9F0200004D
:1005D0004FF000020429C0F0128010F0030C00F06C
:1005E0002383CCF1040CBCF1020F18BF00F8012BDF
:1005F000A8BF20F8022BA1EB0C0100F015BB5FEAAD
:10060000C17C24BF00F8012B00F8012B48BF00F883
:10061000012B7047704770477047000000487047D3
:1006200068000020704770477047704738B504462F
:100630000A4600206946AFF30080002808BF38BD95
:1006400002460099204600F019FB012038BD012028
:1006500000F0A8BFF8B5AFF30080054600200C46B7
:100660000C2000BF0646A819A0420DD932466946A3
:100670000020AFF30080070008BF00F093FF009850
:10068000A04218BF0546C419FFF7C8FF056007461A
:10069000F01D20F007004619284600F00AF8B44281
:1006A00008BFF8BDA21B31463868BDE8F84000F02D
:1006B000E5BA00210160416070470C20704770B5B9
:1006C000044685690068C10601D5302600E0202671
:1006D000C00707D070BDD4E9012130469047206A99
:1006E000401C20626D1EF6D570BD70B5044685694C
:1006F0000078C00707D170BDD4E9012120209047C0
:10070000206A401C20626D1EF6D570BD09684A053E
:1007100001D540B27047C905FCD500B270470968E1
:100720004A0501D5C0B27047C905FCD580B27047F3
:1007300070B50C460546012A05D02878800600D5FC
:10074000EA69002302E0012305E05B1C934202D228
:10075000E05C0028F9D1A869E618C01AA861286AE7
:10076000184428622846FFF7AAFF04E0D5E90121D2
:1007700014F8010B9047B442F8D32846FFF7B5FFB1
:1007800070BD00002DE9F04106460024106875296F
:10079000314616A510D0FFF7B9FF002802DA404213
:1007A00013A507E031688A0701D512A502E04907C1
:1007B00004D511A5012401E0FFF7B1FF00210A22B1
:1007C00006F1240709E0B0FBF2FCB0FBF2F302FBF8
:1007D0001C00303078541846491C0028F3D12346B9
:1007E0002A463046BDE8F04100F0A7BA00000000FC
:1007F0002D0000002B00000020000000116802689E
:10080000006A530501D508700AE0D30501D50880B8
:1008100006E0130603D5C217C1E9000200E0086034
:100820000120704701694A1C02610878704700B5D1
:100830008FB0CDE901310021059105497944CDE919
:1008400003101146684600F029F90FB000BD000002
:10085000E5FFFFFF0A6802F8010B0A60704700001D
:100860002DE9FF5F15468A460446DFF8AC80F84460
:100870000027D8E900103E46CDE9001010E03AF814
:1008800016106A4602A800F069FE411C07D02178C4
:10089000890603D5E269391891420DD80744761CC0
:1008A0002078800602D5E069B84205DDAE42E6DB7D
:1008B0003AF816000028E2D1A069C01BA0612046CA
:1008C000FFF7FDFED8E90010CDE90010002017E089
:1008D0003AF818106A4602A800F040FEB0F1FF3F57
:1008E00081460BD000250DF1080B05E0D4E901216C
:1008F0001BF8050090476D1C4D45F7D308F101002A
:10090000B0428046E4DB206A384420622046FFF78C
:10091000ECFEBDE8FF9F0000462C00002DE9F041F1
:100920008046D21D22F007020025D2E90002F529F7
:1009300015A614D0011E72F1000106DA0023D0EBD7
:10094000030063EB020211A608E0D8F800108B0741
:1009500001D50FA602E0490701D50EA601251146D3
:10096000002408F1240704E000F0A2F930323A55DF
:10097000641C50EA0102F7D12B463246214640461C
:10098000BDE8F04100F0D9B9000000002D000000E2
:100990002B0000002000000030B4002100F12404EE
:1009A00008E002F00705D208303542EA4372DB085E
:1009B0006554491C52EA0305F3D10468002310A2D0
:1009C000250708D504F020040C4304D0C469012392
:1009D0000CA2641EC46130BC00F0AFB910B504466F
:1009E00021461068FFF79BFE02462046BDE81040F6
:1009F0000023D1E7D21D22F00701D1E90023CBE784
:100A00000000000030000000F0B40D460188090528
:100A100002D5214C7C4402E01F4C7C440E34002162
:100A200000F1240608E002F00F071209E75D42EA30
:100A300003721B097754491C52EA0307F3D1027869
:100A40000023120704D5702D06D009B102231134FA
:100A50002246F0BC00F071B901231034F8E770B5FC
:100A600004460D4621461068FFF759FE0246294606
:100A70002046BDE870400023C6E7D21D22F00703E0
:100A8000D3E90023C0E70368126843F02003036042
:100A90000823C3610023B7E7A82A00002DE9F05F0F
:100AA000894604464FF0000ADFF874B1FB44C0F8F1
:100AB00020A02046E1688847002874D0252806D069
:100AC000D4E901219047206A401C2062F1E700260A
:100AD0005F462046E16888472028054607DB312D20
:100AE00005D2781910F8200C08B10643F1E7B007D9
:100AF00001D526F00406C4F81CA00027C4F818A0ED
:100B00002A2D09D0284602F068FB38B304EB870889
:100B1000303DC8F8185019E059F8041B204604EB82
:100B200087029161E1688847012F054618D1E06985
:100B3000002820DA26F020061DE0D8F8180000EB87
:100B4000800005EB40003038C8F818002046E16806
:100B50008847054602F041FB0028EED1012F0AD05C
:100B60002E2D08D12046E16888477F1C0546022FBC
:100B700046F02006C4DBA069002803DA404246F0B4
:100B80000106A061F00701D026F010066C2D0BD0F5
:100B9000682D09D04C2D39D06A2D35D0742D35D023
:100BA0007A2D33D016E038E0E1682F46204688479A
:100BB000B842054609D16C2F26D04FF48060E16819
:100BC000064320468847054604E06C2F1AD04FF4B0
:100BD000807006430DB3A5F14100192802D82035D5
:100BE00046F400664A462946204626604E46FFF7F0
:100BF0008DFB80B101280BD0F61D26F0070000F117
:100C0000080956E74020E4E78020D8E70020D6E72F
:100C100006F104094DE7284652E7206ABDE8F09F37
:100C2000382A00004FF0000200B51346944696465D
:100C3000203922BFA0E80C50A0E80C50B1F12001EF
:100C4000BFF4F7AF090728BFA0E80C5048BF0CC09D
:100C50005DF804EB890028BF40F8042B08BF7047FB
:100C600048BF20F8022B11F0804F18BF00F8012B6D
:100C7000704700000048704760000020034640684D
:100C80008C46002818BF88423CBF03464068F8D312
:100C900018681844884207D00CF1030020F00700C0
:100CA000001D411A521A0146081D0A60FFF757BC81
:100CB00030B5B0F10A0271F100034FEA900E4EEA2E
:100CC000817EB0EB0E0061EB91014FEA101E4EEAFF
:100CD000017E10EB0E0041EB11114FEA102E4EEA8F
:100CE000016E10EB0E0041EB11214FEA104E4EEA5F
:100CF000014E10EB0E0041EB1141401841F1000193
:100D00004FEAD00040EA41704FEAD1014FEA810436
:100D100044EA907410EB800544EB01046D1944EB38
:100D20000404521BA3414FF0000348BF0A3200D510
:100D300030BD401C41F1000130BD2DE9F0470D46AA
:100D400099469246044600F124080168880604D5B5
:100D5000E06921F01001216000E00120A84201DDDE
:100D6000471B00E00027A1697A1902EB0900081A65
:100D7000A0612078C00602D42046FFF7A0FC002620
:100D800008E0D4E901211AF806009047206A401CC7
:100D9000761C20624E45F4DB2078C0060AD520463A
:100DA000FFF78DFC06E0D4E9012130209047206A4E
:100DB000401C2062381EA7F10107F4DC07E0D4E9EB
:100DC000012118F805009047206A401C2062281E67
:100DD000A5F10105F3DC2046FFF787FC207800062B
:100DE00002D50220BDE8F0870120FBE72DE9FF4F87
:100DF0000C461E464FF0FF378BB0D2E90001DDF8FC
:100E000060800A908A46C1F30A5505B93D46002123
:100E100008464FF00000BAF1000F00F4400005DA78
:100E200000EB80004FF4400101EA50004FEA905976
:100E3000B9F1010F00DDB9460A9850EA4A000ED018
:100E400044F61050A5F2FF3545432F14B8F1000FBA
:100E50001ED07542291E1EDDC9F100021CE0B8F14A
:100E6000010F4FF0000001D0302103E0F24305E014
:100E70002154401CB042FBDB3046002200212154AB
:100E80000B99C1F80880C1E900200FB0BDE8F08FD0
:100E9000BD1B6D1CDEE74A4600DA694206A800F079
:100EA000FBFB06AB93E8070003AB83E80700504663
:100EB0000A9901F0BBFB8DE80700A0F500501F3830
:100EC00000900398002D0ADD42F21F014A460844B3
:100ED000002303A90390684601F024FE09E0A0F571
:100EE00000504A461F38002303A90390684601F0CA
:100EF0002EFE8DE807000004000C03D04FF0FF30F9
:100F0000410800E01046B8F1000F03D00022009223
:100F100015461EE0751E05D4FFF7CAFE3032625535
:100F20006D1EF9D5B3460122084302D000227F1C72
:100F300004E02078302801D100227F1E002A099782
:100F400084D01DE0112D07DAFFF7B2FE3032625572
:100F50006D1C50EA0102F5D1084302D00098C8B1D7
:100F60000EE00021681E05E0235C625C635422549D
:100F7000401E491C8142F7DBAB46A81B401E09906E
:100F8000002004F80B000B98099AC0F80880C0E90B
:100F9000002B7AE711264FF0000857E72DE9F04FB4
:100FA00088460446D21D22F0070191B0D1E9000124
:100FB000CDE90A0102F0F9F802460B98C00F01D002
:100FC0002D2007E02068810701D52B2002E0202199
:100FD00001EAC000032A099001D0072A05DB034675
:100FE0004146204600F018FB0BE12078800601D531
:100FF000E06900E00620B8F1650F814606D0B8F13F
:10100000660F18D0B8F1670F70D131E00020B9F148
:10101000110F009001DB112301E009F101030AAA7D
:1010200001A90CA8FFF7E2FEDDE90C70002609F12A
:101030000105834647E001204B4600904FF00047F2
:101040000AAA01A90CA8FFF7D1FEDDE90DB00C99A1
:101050005D46002610B909F101000D18B9EB050035
:1010600003D4C0F1FF3609F10105A5EB09002BE01F
:10107000B9F1010F01DA4FF001090020B9F1110FA8
:101080000090484601DD112300E003460AAA01A9A9
:101090000CA8FFF7ABFEDDE90C704D460026834639
:1010A000207800070AD4AB4500DA5D4601A8012D7F
:1010B00004DD411911F8011C302907D04F4502DA2F
:1010C00017F1040F04DA012082460FE06D1EEEE7EF
:1010D000002F02DCED1B3E4403E0781CA84200DD3B
:1010E0007D1CB81B00F1010A4FF000472078000773
:1010F00003D4AA4501DB4FF0FF3A0021B7F1004FBE
:101100000DF143088DF8431024D002202B23002F2B
:1011100001DA7F422D230A21021EA0F1010000DC2A
:101120005FB197FBF1FC97FBF1F201FB1C7C1746CA
:101130000CF1300C08F801CDEEE7A8F101000370C6
:101140002188090501D5452100E06521A0F10108AC
:1011500000F8011C09980FA9A1EB0807FF1D00B1B9
:101160000120411901EBEA70A1693844081A401EB8
:10117000A0612078C00602D42046FFF7A0FA0998A3
:1011800028B1D4E901219047206A401C20622078D0
:10119000C00622D52046FFF792FA1EE0002E04DB9F
:1011A000B34502DD01A8805D00E03020D4E90121D3
:1011B0009047206A401C2062761CAAF101005FEA79
:1011C000000A0AD100F024FAC0680168405CD4E942
:1011D00001219047206A401C2062281EA5F10105CC
:1011E000DCDC07E0D4E9012118F8010B9047206A04
:1011F000401C2062381EA7F10107F3DC2046FFF7F0
:1012000074FA032011B041E62DE9F04F04460D4673
:10121000D21D22F0070089B0D0E900974846394630
:1012200001F0C3FF0246F80F01D02D2307E020682C
:10123000810701D52B2302E0202101EAC0038DF8AC
:1012400020300BB1012000E00020032A824601D0AB
:10125000072A04DB2946204600F0DEF93FE120782A
:10126000800601D40D2500E0E569C7F30A560D2D6F
:1012700049DA00214FEA175B08464FF00000002FC3
:1012800000F4400007DA00EB80004FF4400100EB6F
:10129000D07001EA60008115012901DD4FF0FF31B6
:1012A00000224FEA850CBCF1180F06D31346ACF1AF
:1012B00018004FF08052C24003E04FF4801323FA2D
:1012C0000CF30CF10C0CBCF1200F04D3ACF1200C8E
:1012D00009FA0CF001E007FA0CF000294FF0004881
:1012E00001DD18B90FE00ED140450CD319EB02090E
:1012F0005F4121B9404502D19F4329EA0209BBEB76
:10130000175F00D0761C2088000502D57B48784402
:1013100002E07A487844193808AA302302F80A30E3
:10132000037C0AF10101002E0AF1020A53546A46B5
:1013300002DC4FF0300101E04FF031014FF00108C5
:101340008DF8001002D0A6F2FF3603E059EA4701FB
:1013500000D06B4E002D02DC2178090704D54FF038
:1013600002082E218DF80110C44600210BE0C7F3BE
:1013700003433F01C35C491C6D1E02F80830052978
:1013800008F1010801DA002DF1DC00210CE000EB8E
:101390001973491C1B786D1E082902F808304FEAA2
:1013A000091908F1010801DA002DF0DC21688B062B
:1013B00002D516E0A8F10108E04505DD02EB0803BF
:1013C00013F8013C302BF5D0B8F1000F09DD02EB2A
:1013D000080313F8013C2E2B03D1090701D4A8F10F
:1013E0000108002D05DD3E2102F808106D1E08F1F0
:1013F0000108407C002E02F8080008F1010804DA18
:101400002D20764202F8080002E02B2002F80800A6
:101410000A214FF47A70864208F101080BDB96FB33
:10142000F0F3303302F8083096FBF0F308F10108CE
:1014300000FB136601E0642E0CDB642096FBF0F3E6
:10144000303302F8083096FBF0F308F1010800FB96
:10145000136601E00A2E06DB96FBF1F0303002F84D
:10146000080008F1010896FBF1F001FB1060303034
:1014700002F80800A16908F1010808EB050202EB77
:101480000A00081AA0612078C00602D42046FFF79F
:1014900016F9216A08AE01EB0A00206204E0D4E9E3
:1014A000012116F8010B9047BAF1010AF7D2207812
:1014B000C00602D52046FFF702F96E4609E016F88D
:1014C000010B3E280FD0D4E901219047206A401C2F
:1014D0002062B8F10108F2D22046FFF706F909B000
:1014E0000320BDE8F08F206A2844206203E0D4E99D
:1014F0000121302090476D1EEBD3F8E7FA21000060
:1015000002FCFFFF10B5436913B1AFF3008001E0A7
:10151000FFF70EF9012010BD127800F124010A70C6
:1015200000224A700122EDE711684FF0FF32E9E72F
:1015300010B5436913B1AFF3008001E0FFF790F9F4
:10154000012010BD128800F1240182840022C2848F
:101550000122EDE711684FF0FF32E9E72DE9F04194
:1015600016460C46054600F04BF8036893F8010157
:10157000012807D0FF2C12D8185D80B101202C70F3
:10158000BDE8F081D3F807013246214603F2071384
:10159000C7182846BC46BDE8F041002360474FF01D
:1015A000FF30EDE710B500F0F7F8BDE8104000F0AF
:1015B000EEB870477546FFF75DFBAE46050069461D
:1015C000534620F00700854618B020B5FEF788FF87
:1015D000BDE820404FF000064FF000074FF0000834
:1015E0004FF0000BAC46ACE8C009ACE8C009ACE871
:1015F000C009ACE8C00921F007018D467047000022
:1016000010B500F005F8001D10BD00BF091C00005A
:1016100000487047800000202DE9F0411F46044635
:1016200003260168072A01F4006004DB08B116A54F
:1016300005E016A503E008B115A500E015A521F009
:1016400010002060A069C01EA0610FB1401EA06103
:101650002046FFF734F84FB1D4E9012138469047CE
:10166000206A401C2062C01C206206E0206AFAE763
:10167000D4E9012115F8010B9047761EF8D22046D7
:10168000FFF733F8BDE8F0814E414E006E616E0009
:10169000494E4600696E66002DE9F04781461646C0
:1016A0008AB0354878440DC88DE80D00324878443A
:1016B000801C03AC0DC884E80D0041F69B30084443
:1016C000372190FBF1F290FBF1F5A5F1800501FBCC
:1016D00012041B3C02D56442012000E00020DFF828
:1016E00098A080460027FA44AAF1BE0A0EE0E0075F
:1016F0000AD03246684607EB470101230AEB810115
:1017000001F025FA8DE8070064107F1C002CEED153
:10171000194F7F44AE3F19E0E80715D007EB0410DE
:101720000DF1180A90E80E008AE80E00C068F04239
:1017300001D1981908903246012306A903A801F0A7
:1017400006FA03AB83E807006D10641C002DE3D19B
:101750004FF0010332466946B8F1000F03A802D0EA
:1017600001F0E0F901E001F0F2F9C9E90001C9F87E
:1017700008200AB0BDE8F087F41E000010B504464A
:10178000AFF300802046BDE81040FEF728BE0028D9
:1017900001D000F029B8704710B5012805D000210C
:1017A00003A000F027F8012010BD09A1F8E7000010
:1017B00053494752544D454D3A204F7574206F663A
:1017C0002068656170206D656D6F727900000000A2
:1017D0003A2048656170206D656D6F727920636F86
:1017E000727275707465640001491820ABBEFEE723
:1017F0002600020070B505460C460A2000E06D1C6C
:1018000000F050F835B128780028F8D102E0641CC7
:1018100000F048F814B120780028F8D1BDE87040F5
:101820000A2000F03FB8000030B44FF0013C50F8FF
:10183000042B51F8043BCCFA52F4D51A20D1FCB950
:1018400050F8042B51F8043BCCFA52F4D51A17D1B6
:10185000B4B950F8042B51F8043BCCFA52F4D51A21
:101860000ED16CB950F8042B51F8043BCCFA52F469
:10187000D51A05D1002CDAD030BC4FF000007047EB
:1018800029BAB1FA81F111F01801D1F12000844098
:10189000F2D1CA40CB4012F0FF0213F0FF0330BC7C
:1018A000D01A704708B569468DF800000320ABBE1A
:1018B00008BD000083B080B59DB0219320921F9198
:1018C0001C9003A8009064210191FEF781FE00980E
:1018D0001FA902911C99029AFEF768FE0099019ACD
:1018E00040F28D10C2F200004FF0FF3300F02CFDEB
:1018F0001DB0BDE8804003B07047000080B584B0E3
:1019000000208DF80F00012102918DF80E108DF846
:101910000D0040F2C000C2F200000190C821FEF7A5
:1019200057FE0199029A40F28D10C2F200004FF06A
:10193000FF3300F0E3FC8DF80E009DF80E0020B19F
:10194000FFE700208DF80F0071E040F2C001C2F205
:10195000000111F8010B8DF80D009DF80D2040F2EB
:101960008D10C2F200004FF0FF3300F0C7FC8DF87D
:101970000E009DF80E0020B1FFE700208DF80F004B
:1019800054E040F2C000C2F2000040781038014636
:101990000091062842D80099DFE801F0040E1840B3
:1019A000222C360040F2C000C2F2000000F06EF9B6
:1019B00001208DF80F0038E040F2C000C2F20000B4
:1019C00000F024F901208DF80F002EE040F2C00055
:1019D000C2F2000000F0D0F801208DF80F0024E0E2
:1019E00040F2C000C2F2000000F09CF901208DF826
:1019F0000F001AE040F2C000C2F2000000F05EF8F2
:101A000001208DF80F0010E040F2C000C2F200008B
:101A100000F064FA01208DF80F0006E043F2B450A4
:101A2000C0F20000FFF746FFFFE7FFE7FFE79DF882
:101A30000F0004B080BD000080B588B0079006910B
:101A4000059200208DF8130003908DF80B00019093
:101A50008DF80B00FFE79DF80B000699884215D220
:101A6000FFE707989DF80B10405C019040F28C1046
:101A7000C2F2000001A9012200F0C8FB0390FFE7B9
:101A80009DF80B0001308DF80B00E4E740F28C105C
:101A9000C2F2000000F080FD03980599884204D14D
:101AA000FFE701208DF8130003E000208DF81300FC
:101AB000FFE79DF8130008B080BD000080B584B03A
:101AC00003900020ADF80A0001908DF8030043F266
:101AD0003170C0F20000FFF7EDFE0398007801308E
:101AE000ADF80A000398BDF80A10084450F8040C39
:101AF00001900398BDF80A100439019AFFF79CFF82
:101B000001282ED1FFE743F2DE60C0F20000FFF7AC
:101B1000D1FE012000F0C2FA03998878C97800F05C
:101B200051FC8DF803009DF8030003280CD1FFE75A
:101B30000DF10300012100F0CBFA43F21D70C0F259
:101B40000000FFF7B7FE0BE00DF10300012100F0EC
:101B5000BFFA43F2BC70C0F20000FFF7ABFEFFE734
:101B600008E043F2C360C0F20000FFF7A3FE00F0FC
:101B7000C1FAFFE704B080BD80B586B005900020B3
:101B8000ADF812000390ADF80A0043F26170C0F2A4
:101B90000000FFF78FFE059800780130ADF81200C5
:101BA0000598BDF81210084450F8040C03900598ED
:101BB000BDF812100439039AFFF73EFF012819D12E
:101BC000FFE743F2DE60C0F20000FFF773FE4EF65F
:101BD0000050CEF20000006800F47F60ADF80A000B
:101BE0000220019000F05AFA01990DF10A0000F06C
:101BF0006FFA08E000F07EFA43F2C360C0F2000022
:101C0000FFF758FEFFE706B080BD000080B584B046
:101C100003900020ADF80A00019043F28C70C0F2EE
:101C20000000FFF747FE039800780130ADF80A0086
:101C30000398BDF80A10084450F8040C019003986A
:101C4000BDF80A100439019AFFF7F6FE012812D1F7
:101C5000FFE743F2DE60C0F20000FFF72BFE0C202E
:101C6000009000F01BFA009940F25000C2F2000010
:101C700000F02EFA08E000F03DFA43F2C360C0F233
:101C80000000FFF717FEFFE704B080BD80B586B007
:101C900005904FF4B27004900020ADF80E00029051
:101CA00043F24260C0F20000FFF704FE059800789E
:101CB0000130ADF80E000598BDF80E10084450F83C
:101CC000040C02900598BDF80E100439029AFFF733
:101CD000B3FE01281BD1FFE743F2DE60C0F2000033
:101CE000FFF7E8FD0420019000F0D8F9019904A85D
:101CF00000F0EEF99DF811109DF812209DF81330B8
:101D000043F28560C0F20000FFF7D4FD08E000F068
:101D1000F1F943F2C360C0F20000FFF7CBFDFFE72B
:101D200006B080BD80B58AB009900020ADF82200D1
:101D30000790059001208DF8130043F26170C0F206
:101D40000000FFF7B7FD099800780130ADF82200D8
:101D50000998BDF82210084450F8040C079009981F
:101D6000BDF822100439079AFFF766FE012840F0FB
:101D7000A980FFE743F2DE60C0F20000FFF79AFDA2
:101D8000012000F08BF90998D0F80200069006981F
:101D900000F0FCFA8DF812009DF81200012840F0C6
:101DA0008480FFE743F2A160C0F20000FFF782FDEC
:101DB0000DF11200012100F08BF90698013003901B
:101DC00040F29410C2F20000006820F003000430DA
:101DD000FEF796FB029000200590FFE7059840F281
:101DE0009411C2F20001096888420ED2FFE740F266
:101DF0009010C2F200000068059A805C0299885435
:101E0000FFE7059801300590E8E740F29410C2F230
:101E100000000090006820F003000430FEF770FB23
:101E20000146009801910299019A0368012000EB94
:101E3000930346F20000C4F2034000F0C7FF002005
:101E40000590FFE7059840F29411C2F200010A687C
:101E5000012101EB9201884217D2FFE70198059A10
:101E600050F8220040F28811C2F20001096851F8CE
:101E70002210884204D0FFE700208DF8130004E010
:101E8000FFE7059801300590DCE79DF81300012875
:101E900003D1FFE70398804706E043F2E250C0F227
:101EA0000000FFF707FDFFE705E00DF1120001213B
:101EB00000F00EF9FFE743F2FE50C0F20000FFF71A
:101EC000F9FC08E000F016F943F2C360C0F200002C
:101ED000FFF7F0FCFFE70AB080BD000080B588B0D6
:101EE00007900020ADF81A00059004908DF80F00BF
:101EF0008DF80E008DF80D008DF80C0043F2116086
:101F0000C0F20000FFF7D6FC079800780130ADF86A
:101F10001A000798BDF81A10084450F8040C0590F0
:101F20000798BDF81A100439059AFFF785FD0128B6
:101F300040F0A880FFE743F2DE60C0F20000FFF748
:101F4000B9FC012000F0AAF80798D0F8020004902C
:101F500000200290029840F00D000290029946F293
:101F60000000C4F20340009000F028FF009840F207
:101F70000001C2F20001082200F06BFF009840F25D
:101F80004001C2F2000100F05BFF049943F26E6071
:101F9000C0F20000FFF78EFC079880798DF80F00E3
:101FA000049800F0F3F98DF80E009DF80E0001285A
:101FB0005ED1FFE70798073004999DF80F2000F0E5
:101FC000C1F88DF80D009DF80F0000F0FC00043002
:101FD000FEF796FA01900799019A9DF80F300120BB
:101FE00000EB930346F20000C4F2034000F0EEFE63
:101FF0009DF80F0040F29411C2F2000108600498AD
:1020000040F29011C2F20001086004989DF80F1090
:102010000844323040F28811C2F200010860019891
:1020200009689DF80F2000F08DF88DF80C000198DC
:10203000FEF795FA9DF80D0001280CD1FFE70DF190
:102040000D00012100F044F843F2F960C0F20000F5
:10205000FFF730FC0BE043F20A70C0F20000FFF71C
:1020600029FC0DF10D00012100F032F8FFE708E036
:1020700000208DF80E000DF10E00012100F028F86F
:10208000FFE708E043F2C360C0F20000FFF712FC74
:1020900000F030F8FFE708B080BD000080B582B0E6
:1020A000ADF806000020ADF80400CD208DF8040046
:1020B0009DF806008DF8050040F28D10C2F2000078
:1020C00001A902224FF0FF3300F03EF902B080BDBB
:1020D00080B582B0019000910199BDF8002040F2D6
:1020E0008D10C2F200004FF0FF3300F02DF902B066
:1020F00080BD000080B582B0AB208DF8070040F2B3
:102100008D10C2F200000DF1070101224FF0FF33E4
:1021100000F01AF902B080BD80B584B000200390B1
:10212000022003904FF0FF30029003990020C4F288
:102130000340019000F0B0FE0198029900F0D1FE3A
:1021400004B080BD80B584B003900291ADF8062044
:1021500001208DF8050000208DF80400ADF8020084
:102160008DF805009DF8050020B1FFE700208DF8EF
:1021700004002AE00020ADF80200FFE7BDF80200ED
:10218000BDF8061088421FDAFFE70298BDF802206A
:1021900081180398825C0120002300F093F88DF8E9
:1021A00005009DF8050020B1FFE700208DF8040030
:1021B0000AE001208DF80400FFE7FFE7BDF8020008
:1021C0000130ADF80200D9E7FFE79DF804000128CF
:1021D00014D1FFE79DF8050080B9FFE700208DF8D6
:1021E00005009DF8050020B1FFE700208DF80400F0
:1021F00003E001208DF80400FFE703E000208DF8E4
:102200000400FFE79DF8040004B080BD80B584B0F1
:102210000390029101920299019A0020C4F20340B6
:10222000012300F03CFE0090009804B080BD000047
:1022300080B588B0079006910798006805900798C8
:10224000C068049007988068039000200290059869
:1022500090B9FFE700200190FFE7019804998842B8
:1022600009D2FFE7039800F03FFE0290FFE70198D4
:1022700001300190F1E715E00598012811D1FFE741
:1022800000200090FFE70098FF2809D8FFE700989A
:1022900000F02AFE0290FFE7009801300090F2E77C
:1022A000FFE7FFE7029828B9FFE706994FF0FF30F4
:1022B000086003E0069903200860FFE7002008B0EB
:1022C00080BD000080B586B0059004910393029212
:1022D000049902A8012200F01DFE0090009820B988
:1022E000FFE700208DF8070003E001208DF80700CC
:1022F000FFE79DF8070006B080BD000080B586B0FE
:1023000005900491ADF80E20029300200090FFE7A5
:102310000098BDF80E10884212DAFFE74CF2000078
:10232000C4F2000000F0FEFE8DF807009DF80700E3
:102330000499009A8854FFE7009801300090E7E77D
:10234000002006B080BD000080B586B005900491E5
:10235000ADF80E20029300200190FFE70198BDF830
:102360000E1088420EDAFFE704980199415C4CF2A6
:102370000000C4F2000000F0DBFEFFE7019801302E
:102380000190EBE7002006B080BD000082B0019014
:1023900000208DF80300019800280AD3FFE7019977
:1023A0000020B0EB914F04D1FFE701208DF803002E
:1023B00003E000208DF80300FFE79DF8030002B062
:1023C0007047000080B588B08DF81F008DF81E1092
:1023D00000208DF81D008DF8070001218DF80610F2
:1023E00000909DF81E00B0F5807F04DBFFE7002021
:1023F0008DF81D0046E09DF81F00FF2805DBFFE774
:102400009DF81F00FF283BD1FFE79DF81F00FF2824
:1024100003D1FFE7012002902DE09DF81F00C0F1DD
:10242000FF008DF807009DF81E009DF807108842F8
:1024300005DDFFE79DF807008DF81E0000E0FFE7CF
:10244000002002909DF81F0004909DF81E0005904A
:1024500002A86946FFF7ECFE8DF8060000980130EF
:1024600020B9FFE703208DF81D0003E002208DF85E
:102470001D00FFE7FFE7002003900320069000E027
:10248000FFE7FFE79DF81D0008B080BD81B04EF664
:102490008851CEF20001086840F4700008604EF2E6
:1024A0007001C4F20F0142F61000C0F280700860A3
:1024B0004EF26002C4F20F0243F6D120C0F28E70D9
:1024C000106042F64250C0F29E10106042F60000CA
:1024D000C0F28010086000200090FFE70098C0085C
:1024E0007C2805D8FFE7FFE7009801300090F5E76A
:1024F0004EF26001C4F20F0140F64250C0F29E104D
:1025000008604EF27001C4F20F0140F60000C0F204
:102510008010086000200090FFE70098C0087C2829
:1025200005D8FFE7FFE7009801300090F5E74EF28D
:102530006001C4F20F0140F64250C0F2DE100860A4
:10254000FFE74EF25000C4F20F00006800F04000B8
:10255000402801D0FFE7F4E74EF26001C4F20F011A
:1025600040F24250C0F2DE1008604EF27001C4F238
:102570000F014FF0C070086000200090FFE7009846
:1025800042F20F71884205D8FFE7FFE7009801305B
:102590000090F4E701B0704780B582B001904FF031
:1025A000FF30009000990020C4F2034000F099FC35
:1025B00002B080BD80B582B00020019047F200409B
:1025C000CFF2000000F084FDFFE747F20040CFF2B9
:1025D000000000F091FD08B9FFE7F6E7FFF79CFD6A
:1025E00046F20000C4F2034000F04AFC41F600004D
:1025F000CFF2000000F06CFDFFE741F60000CFF2E3
:10260000000000F079FD08B9FFE7F6E700F0B6FC3E
:1026100001464CF20000C4F200004FF4E1326023A6
:1026200000F08CFDFFE7FFF769F9FCE75FEA400C7B
:1026300008BF91F0000F4FEA8C234FEAC12243EA12
:1026400051514FEA1C5018BF00F5F0404FEA3000DE
:1026500018BF41F000415FEA6C5C00F02980BCF1DA
:10266000FF3F08BF40F080407047130C06BF1204C4
:102670004FF0100C4FF0000C130E04BF12020CF1BF
:10268000080C130F04BF12010CF1040C930F04BFCC
:1026900092000CF1020CD30F04BF52000CF1010C9C
:1026A00011464FF00002A0F11F00A0EB0C00704794
:1026B00011F0004F08BF704731F000413FF4D5AF33
:1026C0000B0C06BF09044FF0100C4FF0000C0B0E62
:1026D00004BF09020CF1080C0B0F04BF09010CF137
:1026E000040C8B0F04BF89000CF1020CCB0F04BF4C
:1026F00049000CF1010CCCF1200322FA03F341EA6A
:10270000030102FA0CF2A0EB0C0000F1010070478B
:1027100023F07F4720F07F4C80EA030000F0004068
:10272000ACEB070303F57C5303F1FF032DE980496C
:1027300009B44FEA144324EA03484FEA154B25EA4B
:102740000B4E0FF2042606EB13273E7803FB0667B9
:10275000C7F5000707FB06F64FEAD64606F1020664
:102760004FEA543707FB066CCCF1005C4FEA1C477C
:102770002CEA074C0CFB06F507FB06F404EB1546A8
:102780004FEA961649085FEA320234BF00204FF044
:1027900000404FEAD13706FB07FC4FEA1C4C0CFB0C
:1027A0000BF7D21B03FB0CF761EB07010CFB0EF7D9
:1027B000B0EB074072EB17420CFB08F734BFA2EBFB
:1027C0000742B2EB074261EB17414FEA0C444FEA74
:1027D000910706FB07FC4FEA1C4C0CFB0BF7B0EB18
:1027E000C74072EB573203FB0CF734BFA2EBC74272
:1027F000B2EBC74261EB57310CFB0EF7B0EBC700F1
:1028000072EB57720CFB08F734BFA2EBC702B2EBB6
:10281000C70261EB57714FEA816141EA92114FEAB9
:10282000826242EA90124FEA806004EBCC04039F7C
:102830004FEAD13706FB07FC4FEA1C4C0CFB0BF7A9
:10284000D21B03FB0CF761EB07010CFB0EF7B0EB9F
:10285000074072EB17420CFB08F734BFA2EB0742AC
:10286000B2EB074261EB17414FEA8C5504EB9C2415
:102870004FEA910706FB07FC4FEA1C4C0CFB0BF7D9
:10288000B0EBC74072EB573203FB0CF734BFA2EB3F
:10289000C742B2EBC74261EB57310CFB0EF7B0EB0E
:1028A000C70072EB57720CFB08F734BFA2EBC702EC
:1028B000B2EBC70261EB57714FEA816141EA9211B5
:1028C0004FEA826242EA90124FEA806015EB4C2593
:1028D00044F100044FEAD13706FB07FC4FEA1C4CD9
:1028E0000CFB0BF7D21B03FB0CF761EB07010CFB96
:1028F0000EF7B0EB074072EB17420CFB08F734BF42
:10290000A2EB0742B2EB074261EB17414FEA81317C
:1029100041EA92414FEA823242EA90424FEA8030E5
:102920004FEA0C7615EB1C1544F1000448EA03430A
:102930004EEA0B484FF0000EB2EB080C71EB0307A8
:1029400024BF624639464EEB0E0E4FF0000B0018C6
:10295000524149414BEB0B0BB2EB080C71EB0307F7
:102960007BF1000B24BF624639464EEB0E0E4FF052
:10297000000B0018524149414BEB0B0BB2EB080C1A
:1029800071EB03077BF1000B24BF624639464EEB27
:102990000E0E51EA020718BF46F0010616EB0E763E
:1029A00055F1000254F1000103D5BDE88901BDE8ED
:1029B0000088BDE88901BDE80048B619524141EBE5
:1029C0000101A3F10103704780807F7E7D7C7B7ACB
:1029D0007978777676757473727171706F6E6E6DCB
:1029E0006C6C6B6A6A696868676666656464636371
:1029F00062616160605F5F5E5E5D5D5C5C5B5B5AF7
:102A00005A59595858575756565555555454535363
:102A100052525251515050504F4F4F4E4E4D4D4DBE
:102A20004C4C4C4B4B4B4A4A4A4949494848484709
:102A30004747474646464545454444444443434347
:102A400043424242424141419C46002B30D47700F0
:102A50002BD04FEA37071CB503B44FF010004FF0EE
:102A60001001BAF1000F06D0BCF1000FDCBF40F03E
:102A7000080040F008014FF000000FBCBDE8104016
:102A80000BF1010BBBF1010F08BF5FEA170722BF73
:102A900012F1010211F101014FF0004143F1000375
:102AA00000F0004043EA00007047F9D35708D0E730
:102AB00046EA06464FEA164613F1400F1FDD13F1B2
:102AC000200FDFBF16430A46002120335B42BED0F1
:102AD000C3F1200746EA06464FEA164602FA07F710
:102AE00046EA070622FA03F2C3F1200701FA07F7C4
:102AF00042EA070221FA03F14FF00003A7E746EA92
:102B0000020646EA06464FEA164646EA0106BCBFFA
:102B100046EA0646360C4FF000034FF000024FF035
:102B2000000194E72DE9804C70B49A46934691E8F1
:102B3000380007C831EA400C48BF34EA430C03D5DB
:102B4000FFF7E6FDFFF780FFF0BCBDE8008C2DE944
:102B5000804C70B49A46934691E8380007C810F04C
:102B6000804F08BF13F0804F03D100F005F8FFF746
:102B70006BFFF0BCBDE8008C20F07F4723F07F4C5A
:102B800080EA030000F0004007EB0C03A3F57C5340
:102B9000A3F1FE0392F0000F00F0B38095F0000F58
:102BA00000F077802DE901494FEA114021EA004801
:102BB0004FEA144624EA064700FB06FC08FB06F62B
:102BC00007FB08F818EB06484CEB164C00FB07F720
:102BD00018EB07484CEB17404FEA124B22EA0B4E1A
:102BE0004FEA154625EA06470BFB06FC0EFB06F6E8
:102BF00007FB0EFE1EEB064E4CEB164C0BFB07F7CD
:102C00001EEB074E4CEB174B18EB0B0840F1000086
:102C100018EB0E0B58EB000840F100008F1A4FF034
:102C200000014FF000063CBFC943661B14BFB5EB63
:102C3000040C00213CBFC943F61B4FEA174427EAA6
:102C400004454FEA1C472CEA074C04FB076205FBCE
:102C500007F70CFB05F616EB074642EB174204FBA1
:102C60000CFC16EB0C4642EB1C421BEB060658EB29
:102C7000020241414EEA8E0E46EA9E0601D5BDE8AB
:102C80000189B619524141EB0101A3F10103BDE8ED
:102C900001894FEA144524EA05464FEA114721EA23
:102CA000074C05FB07F406FB07F70CFB06F111EBDD
:102CB000074144EB174405FB0CFC11EB0C4144EBC2
:102CC0001C444FEA124722EA074C05FB07F206FBB9
:102CD00007F70CFB06F616EB074642EB174205FB1F
:102CE0000CFC16EB0C4642EB1C456A1854F1000133
:102CF00048BF7047B619524141EB0101A3F10103EE
:102D0000704795F0000F37D04FEA114221EA024692
:102D10004FEA144724EA074C02FB07F106FB07F7CA
:102D20000CFB06F414EB074441EB174102FB0CFCCF
:102D300014EB0C4441EB1C414FEA154725EA074CC4
:102D400002FB07F506FB07F70CFB06F616EB07463A
:102D500045EB174502FB0CFC16EB0C4645EB1C4201
:102D6000121951F1000148BF7047B619524141EBA9
:102D70000101A3F1010370474FEA144524EA054617
:102D80004FEA114721EA074C05FB07F106FB07F75D
:102D90000CFB06F212EB074241EB174105FB0CFC62
:102DA00012EB0C4251EB1C414FF0000648BF70473C
:102DB000921841EB0101A3F101037047026D12F07B
:102DC000005F18BF41F000510165704770B4DFF833
:102DD0006CC00024CCF85430CCF85840002B29D9D2
:102DE00024F0030606EB010C056D15F0020FFBD075
:102DF000DCF80050C566DCF804508566DCF8085045
:102E00004566DCF80CC0C0F860C006EB020C056D2E
:102E100015F0010FFBD0C56ECCF80050856ECCF8D4
:102E20000450456ECCF80850056E1034CCF80C50A8
:102E3000A342D5D870BC0120704700000060034455
:102E40000A6802644A6842648A688264C968C16424
:102E500070470B6883634B68C3638B680363CB68FD
:102E60004363082A08BF70470B6983624B69C362DA
:102E7000182A18BF70478A690262C969416270479F
:102E8000D0F8841041F00201C0F88410D0F8881006
:102E900011F0010FFAD07047C0F800147047D0F855
:102EA00000C41CF4805F9446A2F1010209D0BCF179
:102EB000000F0FD011F801CBC0F814C4521EF9D284
:102EC00008E0BCF1000F05D051F804CBC0F814C4E1
:102ED000521EF9D2002B14BFD0F81804D0F81004F9
:102EE0007047C0F810147047084940F601224A6143
:102EF000086007488860886810F0020FFBD1C86836
:102F0000104018BF4FF0FF307047000000D00F4056
:102F1000020042A470B4174B42F2016CC3F814C013
:102F2000002A18BF144C1DD021F07F051D600BE056
:102F300001F07C0606F1804606F57D2650F8045B1C
:102F4000C6F80051091D121F11F07C0F01D11D6B35
:102F50000DB9002AECD11C621D6A15F0010FFBD1DE
:102F6000002AE1D1D86810EA0C0018BF4FF0FF30FA
:102F700070BC704700D00F40010042A470B44B4DAC
:102F80002A6E296F11F0004F14BF01F0700002F09B
:102F90003000202808BF464818D005DC88B110282A
:102FA00008BF444812D009E0302808BF47F230502B
:102FB0000CD0702808BF4FF4004007D070BC002030
:102FC00070477C203C4B00EA121018584FF0FF333A
:102FD00011F0004F02D011F4006F06D001F0004C48
:102FE00002F400645CEA040C36D1D5F860C1D5F86F
:102FF000644104F01F06C4F30424641C761C16FB11
:1030000004F46400B0FBF4F0CCF309044443CCF3C3
:10301000892C00FB0CF0D5F810C004EB902042F492
:1030200080020CF4704CBCF5804F08BF234B13D0CA
:1030300009DCBCF5005F08BF214B0DD0BCF5405F3B
:1030400008BF204B08E0BCF5E04F08BF1E4B03D083
:10305000BCF5104F08BF1D4B12F4800F21D011F0AA
:10306000004F19D011F0804F09D011F4006F0CD02F
:1030700001F0004C02F400625CEA020205D0C1F3E8
:10308000C551491CB0FBF1F00BE04000C1F3865183
:10309000491CB0FBF1F004E0C2F3C351491CB0FB82
:1030A000F1F0834238BF184670BC704700E00F4013
:1030B00000093D000024F4006C320000005A620256
:1030C00000B4C40480F0FA0240787D01002D310183
:1030D000C0F307230749C0B2194401F07043C1F39C
:1030E000130143EA411141EA800040F000700122DF
:1030F0000260704700E60F40C0F307220849C0B2E3
:10310000114401F07042C1F3130142EA411141EA56
:10311000800040F000700068002818BF0120704750
:1031200000EA0F40816911F0100FFBD10068704771
:10313000826912F0200FFBD101607047D0F818C0EF
:103140001CF0080FFAD1D0F82CC02CF0100CC0F8ED
:103150002CC0D0F830C02CF0010C2CF4407CC0F80E
:1031600030C0D0F830C0B1EB021F34BF4CF0200C9F
:103170002CF0200CC0F830C038BF5208C900B1FB99
:10318000F2F1491C49088A09426201F03F0181625B
:10319000C36200218161C16A41F01001C162016B0B
:1031A00040F2013211430163704703B401984100BA
:1031B000009850EAC12018BF04204A0D18BF40F003
:1031C000010040F2FF72B2EB515F08BF40F0020015
:1031D000012808BF052002B0704730380A2801D204
:1031E000012070470020704710B500290AD00878E8
:1031F000002807D005487844FEF716FB002801D0C8
:10320000002010BD0248784410BD000002060000F6
:10321000FA05000010B500290AD00878002807D068
:1032200005487844FEF700FB002801D0002010BDBF
:103230000248784410BD0000F2050000EA050000D5
:10324000F1EE100A4FF6FF71C0F2C03120EA010022
:1032500040F04070E1EE100A7047FDF79FBEFDF7A9
:10326000D3BF000000688909001C4E0E40420F00C9
:1032700000201C0080841E0000802500999E3600DE
:103280000040380000093D0000803E0000004B0077
:10329000404B4C0000204E00808D5B0000C05D0064
:1032A0000080700000127A0000007D008096980077
:1032B000001BB7000080BB00C0E8CE00647ADA00D3
:1032C0000024F4000000FA0080A81201002D310152
:1032D00000366E0140787D014000000000000000D3
:1032E000000100003E000800000000000001000096
:1032F000A0000000020000000001000034540100A2
:1033000000000000000100002B700600000000001B
:103310000001000028000000000000000001000083
:103320002700010000000000000100002000000054
:10333000000000000001000050000000020000003A
:10334000000100001AAC00000000000000010000B5
:103350001794090000000000000100001698050005
:103360000000000000010000140000000000000048
:1033700000010000138008000000000000010000B0
:10338000A000000008000000000100001000000084
:103390000000000000010000280000000200000002
:1033A00000010000400000000400000000010000D7
:1033B0006000000000000000000100005D000C0043
:1033C00000000000000100005000000000000000AC
:1033D000000100004E00020000000000000100009B
:1033E00041AC010000000000000100003C000000B2
:1033F00000000000000100003A8009000000000009
:10340000000100003000000000000000000100008A
:10341000280000000000000000010000270001005B
:103420000000000000010000236006000000000012
:103430000001000021600800000000000001000001
:103440001E00000000000000000100001DC004007C
:103450000000000000010000500000000200000019
:103460000001000018000000000000000001000042
:1034700014000000000000000001000060000000D7
:1034800004000000000100000024F40030003000BF
:10349000005A62029100910000879303D200D2008B
:1034A00000B4C4041301130100E1F50554015401F3
:1034B000000E2707950195010000000000000000A4
:1034C000303132333435363738394142434445465A
:1034D0004030580030313233343536373839616254
:1034E0006364656640307800040000080000000056
:1034F0000000000200010000103031323334353654
:103500003738396162636465667870003031323310
:103510003435363738394142434445465850000027
:1035200002400000000000A0000000000540000074
:10353000000000C8000000000C4000000000409C9B
:1035400000000000194000000020BCBE0000000088
:1035500034400000BFC91B8E00000004B5400000CD
:10356000504BCFD06607E2CF010000006C41000055
:103570003E8251AADFEEA73401000000D9420000CC
:10358000DCB5A0E23A301F97FFFFFFFFB445000013
:10359000FD25A0C8E9A3C14FFFFFFFFFFF3F0000CB
:1035A0000000008000000000FF3F000000000080DD
:1035B00000000000496E76616C696420636F6D6D78
:1035C000616E6420636F646520726563656976650A
:1035D000642066726F6D20686F7374202121200D46
:1035E0000A004552524F5220494E20444154412036
:1035F000494E544547524954592E200D0A00426FF6
:103600006F746C6F61646572205665722E200D0AAE
:10361000005772697465206461746120696E746F0B
:1036200020646966666572656E74206D656D6F7283
:10363000696573206F6620746865204D4355200DC1
:103640000A00526561642074686520626F6F746C53
:103650006F616465722076657273696F6E20667241
:103660006F6D20746865204D4355200D0A00484F4A
:1036700053545F41646472657373203D2030782534
:1036800058200D0A00426F6F746C6F616465722080
:103690005665722E2025642E25642E2564200D0A81
:1036A000004164647265737320566572696669636C
:1036B0006174696F6E20537563636565646564202A
:1036C0000D0A00435243205665726966696361744E
:1036D000696F6E204661696C6564200D0A00435273
:1036E0004320566572696669636174696F6E205024
:1036F0006173736564200D0A005061796C6F6164B9
:103700002056616C6964200D0A005061796C6F610C
:103710006420496E56616C6964200D0A005375631C
:103720006365737366756C204572617365200D0A5D
:10373000004D617373206572617365206F72207331
:103740006563746F72206572617365206F662074A3
:103750006865207573657220666C617368200D0A58
:10376000005265616420746865204D43552063688C
:103770006970206964656E74696669636174696FF4
:103780006E206E756D626572200D0A00526561646F
:103790002074686520636F6D6D616E642073757051
:1037A000706F727465642062792074686520626F3E
:1037B0006F746C6F61646572200D0A0045726173ED
:1037C000652072657175657374206661696C6564E6
:1037D0002021210D0A0000002439000000000020F3
:1037E0005C000000D0020000803900006000002072
:1037F00038030000F00200001C000000430000003D
:10380000F8FFFFFF0C0000000E0000000F0000009A
:103810002E0000001001000043000000F8FFFFFF31
:1038200000404040404040404040414141414140D3
:103830004040404040404040404040404040404088
:103840004005020202020202020202020202020217
:10385000022020202020202020202002020202021C
:103860000202909090909090101010101010101074
:103870001010101010101010101010100202020280
:1038800002028888888888880808080808080808C4
:1038900008080808080808080808080802020202C0
:1038A00040000000000000000000000000000000D8
:1038B0000000000000000000000000000000000008
:1038C00000000000000000000000000000000000F8
:1038D00000000000000000000000000000000000E8
:1038E00000000000000000000000000000000000D8
:1038F00000000000000000000000000000000000C8
:1039000000000000000000000000000000000000B7
:1039100000000000000000000000000000000000A7
:10392000000000004F7A754D4D69636C732B546233
:103930003047464D48476F6B76543265552B65418D
:1039400055544D416A524131386A763349316F36A8
:10395000423476346F374D6E547851364F4A535A4D
:103960004246795800879801C81DFE18187695B709
:10397000D1E87B51101112131415161718192021B4
:04000005000003ED07
:00000001FF
